:020000040800F2
:10000000480800204D020008AF1D0008E91A00084A
:10001000AD1D0008430400080D2300080000000087
:10002000000000000000000000000000EF1D0008BC
:100030004504000800000000B11D0008F11D000883
:1000400067020008670200086702000867020008EC
:1000500067020008670200086702000867020008DC
:1000600067020008670200086702000867020008CC
:1000700067020008670200086702000867020008BC
:1000800067020008670200086702000867020008AC
:10009000670200086702000867020008670200089C
:1000A000A91E00086702000867020008670200082E
:1000B000670200086702000867020008670200087C
:1000C000670200086702000867020008670200086C
:1000D000670200086702000867020008670200085C
:1000E000670200086702000867020008670200084C
:1000F000670200086702000867020008670200083C
:10010000670200086702000867020008670200082B
:10011000670200086702000867020008670200081B
:10012000670200086702000867020008670200080B
:1001300067020008670200086702000867020008FB
:1001400067020008670200086702000867020008EB
:1001500067020008670200086702000867020008DB
:1001600067020008670200086702000867020008CB
:10017000670200086702000867020008000000002C
:1001800067020008670200086702000867020008AB
:10019000670200086702000867020008670200089B
:1001A00067020008670200086702000800F002F812
:1001B00000F03CF80AA090E8000C82448344AAF1C5
:1001C0000107DA4501D100F031F8AFF2090EBAE8C3
:1001D0000F0013F0010F18BFFB1A43F0010318477B
:1001E0000826000028260000103A24BF78C878C1ED
:1001F000FAD8520724BF30C830C144BF04680C602D
:10020000704700000023002400250026103A28BF74
:1002100078C1FBD8520728BF30C148BF0B60704778
:100220001FB502F0CFFA1FBD10B510BD00F0CFF81A
:100230001146FFF7F5FF02F0BDF800F0EDF803B44A
:10024000FFF7F2FF03BC00F0F5F800000948804713
:1002500009480047FEE7FEE7FEE7FEE7FEE7FEE7A8
:10026000FEE7FEE7FEE7FEE704480549054A064BC0
:1002700070470000991E0008AD01000848020020E8
:1002800048080020480400204804002053EA020CDB
:1002900000F069802DE9F04B4FF00006002B1FBFE6
:1002A000B3FA83F503FA05F424FA05F65E4012BFAB
:1002B0001643B2FA82F502FA05F4C5F120051EBF15
:1002C00022FA05FC44EA0C04203556EA044C4FEAB5
:1002D000144418BF641C4FF000084FF0000990420E
:1002E00071EB030C39D3002919BFB1FA81F701FA78
:1002F00007F6B0FA80F700FA07F6C7F120071EBF2D
:1003000020FA07FC46EA0C062037B6FBF4FCA7EB04
:100310000507103F07F01F0BCBF120060CFA0BFB73
:100320002CFA06F644BFB3460026202FA4BF5E4633
:100330004FF0000B5BEA060C08BF4FF0010B19EB06
:100340000B09ABFB027C48EB0608C01B06FB02CC8A
:100350000BFB03CC71EB0C01C1E70B460246414697
:100360004846BDE8F08B13B54FF000004FF0000198
:10037000AFF30080BDE81C4070474FF0000200B5AD
:10038000134694469646203922BFA0E80C50A0E8B8
:100390000C50B1F12001BFF4F7AF090728BFA0E866
:1003A0000C5048BF0CC05DF804EB890028BF40F832
:1003B000042B08BF704748BF20F8022B11F0804F74
:1003C00018BF00F8012B704770477047704775469B
:1003D00000F02CF8AE4605006946534620F00700B1
:1003E000854618B020B5FFF73FFFBDE820404FF02D
:1003F00000064FF000074FF000084FF0000B21F00F
:100400000701AC46ACE8C009ACE8C009ACE8C009DB
:10041000ACE8C0098D46704710B50446AFF30080C4
:100420002046BDE81040FFF70ABF000000487047B3
:10043000E401002001491820ABBEFEE726000200BF
:100440007047FEE7704772B6FEE7000070B50446DD
:1004500000F032F90546601C02D0044800780444DC
:1004600000F02AF9401BA042FAD370BD080000201A
:100470002DE9F84FDFF8F8A1002201240AF1040B5E
:1004800003254FF00F090BF1040E00BF0B6804FAAF
:1004900002F63340B34270D10F7907F00307012F02
:1004A00001D0022F16D187684FEA420805FA08FCEE
:1004B00027EA0C07D1F80CC00CFA08FC4CEA070C30
:1004C000C0F808C04768B7430E79C6F300169640D7
:1004D0003E4346600E79F643B6070AD0C7684FEA36
:1004E000420C05FA0CF6B7438E6806FA0CF63E434A
:1004F000C6600E7906F00306022E10D1D60800EB76
:100500008608D8F8206057074FEAD76C09FA0CF72D
:10051000BE430F6907FA0CF73743C8F82070066826
:100520004FEA420C05FA0CF7BE430F7907F00307B8
:1005300007FA0CF7374307604E6816F4403F1CD0AB
:100540004C4E376847F480473760366822F003071F
:1005500006F480460096484E07EB060CDCF8086867
:1005600097073F0F09FA07F826EA0806DFF80C811B
:10057000404503D14FF0000841E072E0DFF8008110
:10058000404502D14FF0010839E0DFF8F8804045DE
:1005900002D14FF0020832E0DFF8EC80404502D192
:1005A0004FF003082BE0DFF8E480404502D14FF024
:1005B000040824E0DFF8D880404502D14FF0050858
:1005C0001DE0DFF8D080404502D14FF0060816E06C
:1005D000DFF8C480404502D14FF007080FE0DFF894
:1005E000BC80404502D14FF0080808E0DFF8B08039
:1005F000404502D14FF0090801E04FF00A0808FA1F
:1006000007F848EA0608CCF80888DAF80060574688
:10061000D1F804C09E435FEACC3C00D51E433E6047
:10062000DBF800605F46D1F804C09E435FEA8C3C73
:1006300000D51E433E60DEF800607746D1F804C066
:100640009E435FEACC2C00D51E433E60084F0C371A
:100650003E68D1F804C09E435FEA8C2C00D51E434F
:100660003E60521C102AFFF411AFBDE8F88F000065
:10067000003C01404438024000300140000002408C
:100680000004024000080240000C0240001002403A
:100690000014024000180240001C024000200240EA
:1006A000002402400069084000D0012070470AB1D0
:1006B000816170470904FBE70148806870470000CA
:1006C0000800002002488168027811448160704768
:1006D000080000200B4810B5016841F4007101606A
:1006E000016841F480610160016841F4807101603A
:1006F000032000F06FF8002000F006F800F024F866
:10070000002010BD003C024070B50D4D04464FF472
:100710007A712878B1FBF0F00A490968B1FBF0F072
:1007200000F0FBFC48B9102C07D200222146501ED5
:1007300000F030F800206C6070BD012070BD00003A
:1007400008000020140000200A4808B5016841F4A0
:1007500080410160006800F4804000900548001F5F
:10076000016841F080510160006800F08050009005
:1007700008BD000044380240002809DB00F01F02D9
:10078000012191404009800000F1E020C0F80011F3
:1007900070470000F0B40E4B1B680C46C3F30223F5
:1007A000C3F10705042D00D90425191D072901D21D
:1007B000002300E0DB1E012606FA05F1491E214058
:1007C00099409E40761E16403143F0BC01F09FBD1B
:1007D0000CED00E0064900F0070208684FF6FF0341
:1007E000184040EA0220034A1043086070470000A6
:1007F0000CED00E00000FA052DE9F8431748016808
:1008000041F0805101600068154F00F080500126D2
:1008100000903E64FFF750FF05464FF47A78114C84
:1008200005E000BFFFF748FF401B40450DD860685A
:10083000C003F7D57E64FFF73FFF0546464607E055
:10084000FFF73AFF401BB04202D90320BDE8F8830E
:1008500060688003F4D50020F8E7000040380240CB
:1008600000000E42007000402DE9F84F0446006879
:10087000DFF824A2894F8A4DC1074FF001084FF0DD
:10088000000603D1810701D4400648D5CAF8686044
:10089000FFF712FF814605E0FFF70EFFA0EB09000E
:1008A00002287DD828680001F6D42078C1077D4849
:1008B00005D06168227A890141EA027101602178DC
:1008C000890711D501686268237B9201C1F3027127
:1008D00042EA036242EA017101603968E26921F08B
:1008E0001F01521E114339602178490608D56168FD
:1008F000227B890141EA0261227A41EA02710160A8
:10090000CAF86880FFF7D8FE814605E0FFF7D4FEFD
:10091000A0EB0900022843D828680001F6D520681A
:10092000410701D400074ED5CAF87060FFF7C4FE36
:10093000814605E0FFF7C0FEA0EB090002282FD892
:100940002868C0438000F5D520784107564814D563
:1009500001682269237D9201C1F3027142EA0362B8
:1009600042EA017101603968226A6FF0FF0321F4E5
:10097000F85103EB0222114339602178090712D59F
:1009800001682269C1F30361920142EA0161227E9A
:1009900041EA027101603868616A20F4403000E089
:1009A00051E008433860CAF87080FFF785FE0746BB
:1009B00005E000BFFFF780FEC01B022843D828686F
:1009C000C0438000F6D42078800653D534484030A8
:1009D000016841F0805101600068344D00F08050A2
:1009E0000090286840F480702860FFF765FE074695
:1009F00005E000BFFFF760FEC01B022823D828686F
:100A0000C005F7D5274D143D286810F4407020D05C
:100A1000218D01F4407181421BD0286820F440717F
:100A20002348C0F80080066029602868C00710D0FD
:100A3000FFF742FE064641F2883707E0FFF73CFE2B
:100A4000801BB84202D90320BDE8F88F28688007D0
:100A5000F4D5A16A1248C1F301220830032A13D049
:100A6000016821F4F81101602868218DC1F30B01A0
:100A7000084328602078C00604D50E4994F82C005D
:100A8000C1F8E0010020DFE702680B4B22F4F81206
:100A900019400A430260E7E7000047428C380240F1
:100AA000003802408438024088380240007000401C
:100AB000400E474200104742FFFCFF0F2DE9F04770
:100AC0000E46050065D0DFF81481D8F80000F7B2B3
:100AD00000F00F00B04207D288F80070D8F800008C
:100AE00000F00F00B04254D128683D4C810712D568
:100AF000400703D5206840F4E050206028780007C4
:100B000003D5206840F4604020602068A96820F088
:100B1000F000084320602878C0072DD0304968686D
:100B20000839012812D0022813D0032811D00968EF
:100B3000890700292DDA216821F003010143216092
:100B4000FFF7BAFD814641F2883A0EE00968890351
:100B5000EFE709688901ECE7FFF7AEFDA0EB0901BB
:100B6000514502D90320BDE8F0872068696800F08C
:100B70000C00B0EB810FEFD1D8F80010404601F027
:100B80000F01B14207D90770006800F00F00B042B2
:100B900001D00120E7E72878400705D52068E968FB
:100BA00020F4E050084320602878000706D520682C
:100BB000296920F4604040EAC100206000F038F864
:100BC0002168084AC1F30311515CC8400649086016
:100BD00006480068FFF798FD0020C4E7003C02408B
:100BE00008380240CE270008140000200C00002026
:100BF0000448054900680968044AC1F38221515C30
:100C0000C84070471400002008380240DE27000862
:100C10000448054900680968044AC1F34231515C3F
:100C2000C84070471400002008380240DE27000842
:100C3000154810B5006810F00C02144813D041108C
:100C4000042A0FD0082A0ED10F4C241F22682368D3
:100C500002F03F025B0207D52068C0F38810A0FBBA
:100C6000010106E0084610BD2168C1F38811A1FB0F
:100C700000010023FFF70AFB2168C1F30141491C71
:100C80004900B0FBF1F010BD083802400024F40028
:100C90002DE9F84F04006ED02078DFF84C93C007A0
:100CA000A9F104054AD009F104000168C1F38101EA
:100CB000012908D00068C0F3810002280AD1D9F8C0
:100CC0000000400206D52868800337D560680028F8
:100CD000E1D033E06068B0F5803F10D0B0F5A02FD0
:100CE000286810D020F480302860286820F4802004
:100CF00028606068A8B1FFF7DFFC06460DE02868B1
:100D000040F48030F4E740F480202860F7E700BF2B
:100D1000FFF7D2FC801B642873D828688003F7D5BE
:100D20000CE0FFF7C9FC064605E000BFFFF7C4FC76
:100D3000801B6428F0D828688003F7D42078DFF877
:100D4000AC8280074FF0000A3ED5A748001D01681D
:100D500011F00C0F08D00068C0F3810002280BD1FD
:100D6000D9F80000400207D42868800716D5E0684B
:100D7000012800D112E033E1E068B8B10120C8F8E1
:100D80000000FFF799FC064605E000BFFFF794FC62
:100D9000801B0228C0D828688007F7D528682169F9
:100DA00020F0F80040EAC10028600DE0C8F800A07B
:100DB000FFF782FC064604E0FFF77EFC801B02285A
:100DC0001FD828688007F7D42078000722D5864FDF
:100DD00087486169703771B101210160FFF76CFCD0
:100DE000064604E0FFF768FC801B022809D8386833
:100DF0008007F7D50EE0C0F800A0FFF75DFC0646BF
:100E000005E082E0FFF758FC801B02287DD8386897
:100E10008007F7D42078400768D5DFF8CCB10027E9
:100E20000BF13C0BDBF80000C0000BD4DBF800102A
:100E300041F08051CBF80010DBF80000012700F0F2
:100E4000805000906B4E3068C00510D4306840F47C
:100E500080703060FFF730FC009005E0FFF72CFC5D
:100E60000099401A022850D83068C005F6D55E4E69
:100E7000A0686C3601280FD00528306810D020F00B
:100E800001003060306820F004003060A068B8B124
:100E9000FFF712FC00900FE0306840F00100F4E72B
:100EA00040F004003060F7E7FFF706FC0099411AB4
:100EB00041F28830814266D830688007F4D50EE070
:100EC000FFF7FAFB009007E0FFF7F6FB0099411AE5
:100ED00041F28830814256D830688007F4D42FB16F
:100EE000DBF8001021F08051CBF80010A069C8B3E6
:100EF0003D49091D0968C1F3810102294AD0022830
:100F0000504607D0C8F8600000E03CE0FFF7D4FB93
:100F100004463BE04746C8F86000FFF7CDFB0646B5
:100F200005E000BFFFF7C8FB801B02282BD828680C
:100F30008001F7D4D4E907010843A16A2E4A490881
:100F400002EB0141626A41EA8211084394F82C10D5
:100F500040EA0161C9F8001001203866FFF7ACFBD8
:100F6000044606E03EE000BFFFF7A6FB001B022898
:100F700009D828688001F7D534E000BFFFF79CFB53
:100F8000001B022802D90320BDE8F88F28688001E1
:100F9000F4D427E00128F7D0D9F80000E26900F482
:100FA000800191421CD1226A00F03F01914217D189
:100FB00047F6C071626A0140B1EB821F10D1A26A8C
:100FC0004FF0FF3300F4403103EB5202B1EB024F1C
:100FD00006D194F82C1000F07060B0EB016F01D0D6
:100FE0000120D1E70020CFE704380240000047424B
:100FF000800E4742007000400000FFFF70B5040003
:1010000002D0607F10B106E0012070BD0020207783
:10101000204600F049F8022060772168CA20486223
:10102000216853204862204600F0C4FEFF250426B4
:1010300018BB206881681B4A11408160216888685C
:1010400062681043D4E904231A431043886021687E
:10105000E068086120680169228941EA0241016172
:101060002068C16821F08001C16020688068800626
:1010700007D4204600F036F818B12068456266773C
:10108000C2E72068016C21F4802101642068016CB2
:10109000A269114301642068456201206077002045
:1010A00070BD0000BFFF8FFF10B58CB0044630212B
:1010B0006846FFF762F90949206888420CD1202070
:1010C000009000010A906846FFF7CEFB08B1FFF7D9
:1010D000BAF90349012008600CB010BD0028004097
:1010E0003C0E474270B504460068C16821F0A0017B
:1010F000C160FFF7E1FA05464FF47A7607E000BFDA
:10110000FFF7DAFA401BB04201D9032070BD206816
:10111000C0688006F4D5002070BD10B5401EB0F147
:10112000807F01D3012010BD4FF0E02460610F21CA
:10113000601701F0ECF80020A0610720206100207A
:1011400010BD70477047000070B590F83C20012A30
:1011500032D0012480F83C40022280F83D20036810
:101160005A689D6822F070060A6832435A60134B31
:1011700002689A4214D0B2F1804F11D0104B9A42BB
:101180000ED0104B9A420BD00F4B9A4208D00F4B07
:101190009A4205D00E4B9A4202D00E4B9A4204D18D
:1011A000496825F080031943916080F83D40002193
:1011B00080F83C10084670BD022070BD0000014060
:1011C0000004004000080040000C00400004014002
:1011D000004001400018004010B5040003D094F80E
:1011E0003D0010B107E0012010BD002084F83C0054
:1011F000204600F01FF8022084F83D00211D2068E1
:1012000000F058FE012084F8460084F83E0084F87F
:101210003F0084F8400084F8410084F8420084F8DC
:10122000430084F8440084F8450084F83D00002021
:1012300010BD000008B501681C48814208D11C4857
:10124000016841F008010160006800F0080020E03A
:101250001748184A001D914211D1016841F48031AC
:1012600001600068002200F48030009011461820D0
:10127000FFF790FABDE808401820FFF77DBA0E4A44
:10128000914208D1016841F400310160006800F426
:101290000030009008BD094A9142FBD1016841F439
:1012A00080210160006800F48020F2E7000C00401B
:1012B00040380240004001400044014000480140E5
:1012C00090F83D10012901D001207047022180F8DB
:1012D0003D1000681149884214D0B0F1804F11D000
:1012E0000F4988420ED00F4988420BD00E498842E0
:1012F00008D00E49884205D00D49884202D00D49D8
:10130000884204D1816801F00701062903D00168F1
:1013100041F0010101600020704700000000014021
:101320000004004000080040000C004000040140A0
:10133000004001400018004070B5044690F83C00A1
:101340000025012817D0012684F83C60022084F88B
:101350003D002068826822F0770222F47F4282609A
:101360000868502838D00DDC20284FD005DC90B319
:10137000102811D14AE0022070BD302846D0402804
:101380000AD13BE060282FD070280DD0B0F5805FE7
:1013900003D0B0F5005F12D0012584F83D60002035
:1013A00084F83C00284670BDCB68D1E90121206853
:1013B00000F0F1FD2068816841F0770109E0CB6819
:1013C000D1E90121206800F0E6FD2068816841F440
:1013D00080418160E1E719E0CA684968206800F04F
:1013E000AFFE5021206806E0CA684968206800F016
:1013F000B8FE6021206800F0D8FDCEE7CA684968D1
:10140000206800F09DFE40212068F4E72268014634
:101410001046F0E72DE9F0410D46040003D094F8A2
:101420003D0018B108E00120BDE8F081002084F8FB
:101430003C00204600F040F8022084F83D0020687F
:10144000816844F2070291438160211D206800F009
:1014500031FD226890689169166A2B68AF69034371
:1014600040F20330814341EA0721A868EF6908434D
:101470004FF6FC418843E96840EA072001432869A8
:101480002F6A000140EA0730084369686D6926F059
:10149000AA0646EA0515294393602268906154F82C
:1014A000460B0162012004F81F09E0752076E07602
:1014B0002077A0750020B7E710B586B00446142148
:1014C0006846FEF75AFF1249206888421ED111482B
:1014D0000021026842F002020260006800F002008F
:1014E00005900C481038026842F001020260006862
:1014F00000F001000590C02000900220CDE901011C
:10150000CDE9031069460448FEF7B2FF06B010BDEE
:10151000000400404038024000000240704770B5AF
:101520000446006801694FF00005C943890715D4D6
:10153000C168C943890711D4E91E016101202077E0
:10154000206880698007204602D0FFF7E7FF04E0AB
:1015500000F0F2F8204600F084F925772068016950
:10156000C943490717D4C168C943490713D46FF069
:1015700004010161022020772068806910F4407F17
:10158000204602D0FFF7CAFF04E000F0D5F820465D
:1015900000F067F9257720680169C943090716D467
:1015A000C168C943090712D46FF008010161042022
:1015B00020772068C0698007204602D0FFF7AEFF81
:1015C00004E000F0B9F8204600F04BF925772068D8
:1015D0000169C943C90617D4C168C943C90613D4F0
:1015E0006FF010010161082020772068C06910F4B5
:1015F000407F204602D0FFF791FF04E000F09CF806
:10160000204600F02EF9257720680169C943C907F3
:1016100008D1C168C943C90704D1891E01612046A8
:1016200000F084F920680169C943090609D4C1683A
:10163000C943090605D46FF0800101612046FFF718
:1016400080FD20680169C943490609D4C168C943BE
:10165000490605D46FF040010161204600F067F9AA
:1016600020680169C94389060BD4C168C94389064A
:1016700007D46FF0200101612046BDE87040FFF7FC
:1016800061BD70BD30B587B0044614216846FEF7D1
:1016900074FE2268214C002121480223A24210D16D
:1016A000026842F001020260006800F0010005904B
:1016B00001200090CDE90131CDE9031369461948B5
:1016C00013E0194D0324AA4213D1026842F010021C
:1016D0000260006800F01000059020200090CDE925
:1016E0000131CDE9031469461048FEF7C1FE07B089
:1016F00030BD0F4DAA42FAD1026842F020020260CA
:10170000006800F02000059080200090CDE90131B4
:10171000CDE9031469460748E7E70000000C0040E4
:1017200030380240000002400040014000100240FA
:101730000048014000140240704770B5044690F81C
:101740003C0000260D4601280FD0012084F83C0003
:101750006AB1042A1DD0082A2FD00C2A3FD00126B6
:10176000002084F83C00304670BD022070BD206827
:1017700000F024FC2068816941F008018161206843
:10178000816921F004018161206881692A6911431E
:1017900011E0206800F042FC2068816941F400619A
:1017A00081612068816921F480618161206881699B
:1017B0002A6941EA02218161D2E7206800F064FCD5
:1017C0002068C16941F00801C1612068C16921F048
:1017D0000401C1612068C1692A69114311E02068D0
:1017E00000F086FC2068C16941F40061C161206895
:1017F000C16921F48061C1612068C1692A6941EA37
:101800000221C161ACE710B5040003D094F83D009B
:1018100010B107E0012010BD002084F83C002046F4
:1018200000F01EF8022084F83D00211D206800F021
:1018300041FB012084F8460084F83E0084F83F0014
:1018400084F8400084F8410084F8420084F84300A2
:1018500084F8440084F8450084F83D00002010BD61
:101860007047704710B50446022249B104290ED0D2
:10187000082913D094F84100012816D0012010BD8A
:1018800094F83E000128F9D184F83E200FE094F846
:101890003F000128F2D184F83F2008E094F840008E
:1018A0000128EBD184F8402001E084F84120012296
:1018B000206800F063FB16492068164A884201D070
:1018C000904203D1436C43F4004343642068884250
:1018D00013D0B0F1804F10D00F4988420DD00F497E
:1018E00088420AD00E49884207D0904205D00D495F
:1018F000884202D00C49884204D1816801F0070176
:10190000062903D0016841F001010160002010BDEB
:1019100000000140000401400004004000080040B5
:10192000000C004000400140001800407047704724
:1019300070B5040004D094F83D00002510B106E015
:10194000012070BD84F83C50204600F023F824208C
:1019500084F83D002068C16821F40051C160204630
:1019600000F012FC2068016921F4904101612068B7
:10197000416921F02A0141612068C16841F40051A8
:10198000C1602564202084F83D0084F83E000020DA
:1019900070BD0000F0B587B0044614216846FEF71C
:1019A000ECFC1D492068884233D11C4800240168A2
:1019B00041F480110160006800F480100590174820
:1019C0001038016841F004010160016801F0040170
:1019D0000591016841F0080101600068022500F0EE
:1019E000080005904FF48050CDE9000502AA0326B7
:1019F000082782E8D00069460948FEF739FD04202F
:101A0000CDE9000502AA694682E8D0000548FEF744
:101A10002FFD07B0F0BD00000050004040380240EC
:101A200000080240000C02402DE9F84F044690F8EF
:101A30003E009A4616460D46202853D1FDB1F6B118
:101A400094F83C0001284DD0012084F83C00002788
:101A50002764222084F83E002763FEF72DFEA6852A
:101A60008146E685A0684FF48058404501D1206941
:101A700040B12E465FF0000584F83C7027E001205D
:101A8000BDE8F88F0026F7E74B46002220212046CC
:101A9000CDF800A000F0FEFB08B10320F0E726B16E
:101AA000A06840451BD038B108E020684068C0F30A
:101AB000080025F8020B07E0206980B12068406823
:101AC00000F07F0006F8010BE08D401EE085E08D00
:101AD0000028D9D1202084F83E000020D0E72068DB
:101AE0004068EFE70220CBE7FEE700002DE9F04178
:101AF00086B014216846FEF740FC2A48002401689D
:101B000041F010010160016801F0100105910168C8
:101B100041F004010160016801F0040105910168D0
:101B200041F020010160016801F020010591016888
:101B300041F001010160016801F0010105910168B6
:101B400041F0080101600068174F00F0080005909F
:101B500000225C213846FEF7AAFDDFF85080002203
:101B600003214046FEF7A3FD5C200126CDE90006D7
:101B7000032569463846CDE90245FEF779FCCDE9F3
:101B8000005469460A480294FEF772FC0095CDE9BC
:101B90000164694640460394FEF76AFC06B0BDE85E
:101BA000F08100003038024000100240000C02407A
:101BB0000014024010B588B01C216846FEF7DDFB1A
:101BC00015481449002401605321C0E901144FF65F
:101BD000FF71C0E903148461FFF7FEFA08B172B621
:101BE000FEE70D48FFF70FFE08B172B6FEE7602072
:101BF000CDE9000402940022694607480494FFF7E7
:101C00009CFD08B172B6FEE70348FFF73BFD08B044
:101C100010BD0000004801405801002010B58CB0F4
:101C200024216846FEF7A9FB0024164809941449AC
:101C30000A94C0E900144FF6FF71C0E90241046143
:101C400084610320CDE900040120CDE902040521CF
:101C50000491CDE90540CDE9074169460948FFF700
:101C6000D9FB08B172B6FEE7099409A905480A94A0
:101C7000FFF76AFA002801D072B6FEE70CB010BD7B
:101C8000000400403800002010B58EB000240794F6
:101C9000089409940A940B941C2168460C94FEF74E
:101CA0006CFB1F481D4901605321C0E9011442F239
:101CB0000F71C0E903148461FFF78EFA08B172B6A0
:101CC000FEE74FF48050079007A91548FFF734FB53
:101CD00008B172B6FEE71248FFF795FD08B172B67B
:101CE000FEE70B940BA90E480C94FFF72DFA08B1F0
:101CF00072B6FEE76020009041F28830CDE9010421
:101D00000022694606480494FFF717FD08B172B631
:101D1000FEE70348FFF7B6FC0EB010BD000C004014
:101D20008000002010B58CB000240794089409941A
:101D30001C2168460A94FEF720FB1B4819490160E4
:101D40005321C0E9011442F20F71C0E90314846108
:101D5000FFF742FA08B172B6FEE74FF480500790E1
:101D600007A91148FFF7E8FA08B172B6FEE70E4876
:101D7000FFF749FD08B172B6FEE76020009041F21E
:101D80008830CDE901040022694607480494FFF732
:101D9000D4FC08B172B6FEE70348FFF773FC0CB041
:101DA00010BD000000400140C8000020FEE7FEE733
:101DB0007047000070B504460068C168490614D435
:101DC0004FF0FF31C160FEF777FC05464FF47A769D
:101DD00007E000BFFEF770FC401BB04201D90320B2
:101DE00070BD2068C0684006F4D5002070BD704703
:101DF000FEF768BC30B593B030216846FEF7BDFAF7
:101E000014210CA8FEF7B9FA21480024016841F01A
:101E100080510160006800F0805011901D480168F9
:101E200041F4404101600068102100F440401190ED
:101E30000A2000900120CDE903010225CDE9050526
:101E40000820CDE90740B420CDE9090507200B9013
:101E50006846FEF71DFF08B172B6FEE7FEF7CCFC40
:101E600008B172B6FEE70F20CDE90C054FF4A05083
:101E7000CDE90E404FF48050109005210CA8FEF7DC
:101E80001DFE002801D072B6FEE713B030BD000081
:101E900040380240007000400248016841F470017F
:101EA0000160704788ED00E00148FFF738BB000093
:101EB000C8000020F0B50268254C264D264E274F5D
:101EC000274B4FF0804CA04209D0604507D0A84274
:101ED00005D0B04203D0B84201D0984204D122F0DC
:101EE000700E4A6842EA0E02A0421BD0604519D02B
:101EF000A84217D0B04215D0B84213D0984211D0A2
:101F0000184DA8420ED0184DA8420BD0174DA8422C
:101F100008D0174DA84205D0164DA84202D0164D44
:101F2000A84203D122F44075CA682A434D6922F0C1
:101F300080022A4302608A68C2620A688262A04202
:101F400001D0984201D10969016301214161F0BDCD
:101F5000000001400004004000080040000C004068
:101F6000000401400040014000440140004801409D
:101F700000180040001C00400020004010B501F097
:101F80001F030121046A99408C430462016A9A404C
:101F90001143016210BD10B5846842EA032224F4A3
:101FA0007F440A432243826010BD826822F070029F
:101FB0000A4342F00701816070470000F0B5026AF1
:101FC00022F001020262036A42688469124E24F020
:101FD00073050C682C4323F002058B682B430D4DD1
:101FE000A84201D0B04205D123F00807CB683B439B
:101FF00023F00403A84201D0B04205D14D6922F478
:10200000407215438A692A4342608461496841638A
:102010000362F0BD0000014000040140F0B5026A17
:1020200022F010020262026A436884690D6824F497
:10203000E64444EA05248D6822F0200242EA0512B3
:102040000F4D104EA84201D0B04206D1CF6822F009
:10205000800242EA071222F04002A84201D0B042B8
:1020600007D14D6923F4406343EA85038D6943EA50
:10207000850343608461496881630262F0BD0000AA
:102080000000014000040140F0B5026A22F48072B1
:102090000262026A4368C46922F4007224F0730584
:1020A0000C68124E2C438D6842EA05220E4DA84260
:1020B00001D0B04206D1CF6822F4006242EA072282
:1020C00022F48062A84201D0B04207D14D6923F4C6
:1020D000405343EA05138D6943EA05134360C46125
:1020E0004968C1630262F0BD000001400004014084
:1020F00030B5026A22F480520262046A4268C369FF
:102100000D6823F4E64343EA05238D6824F4005464
:1021100044EA0534084DA84202D0084DA84204D133
:102120004D6922F4804242EA85124260C3614968E7
:102130000164046230BD0000000001400004014061
:1021400010B5036A046A24F001040462846924F06F
:10215000F00444EA021423F00A020A438461026292
:1021600010BD10B5036A23F0100303628369046A8B
:1021700023F4704343EA023224F0A00343EA01113E
:102180008261016210BD000070B5044600680169FB
:10219000E26821F44051114301612169A068E269BC
:1021A00008436169114308432168CA6849F20C6316
:1021B0009A430243CA6020684169A26921F44071D0
:1021C0001143416131492068884202D03049884238
:1021D00002D1FEF71DFD01E0FEF70AFDE2690023D2
:1021E000192164253226B2F5004F626828D0A0FB81
:1021F0000101930F9200FEF749F80146B0FBF5F09C
:102200006FF01802504301EB800006EB0010B0FBAA
:10221000F5F000F0F002B1FBF5F002EB0012B1FBBB
:10222000F5F06FF01803584301EB800006EB001047
:10223000B0FBF5F000F00F0021681044886070BD1D
:10224000A0FB010192185B41FEF720F80146B0FBAC
:10225000F5F00201B1FBF5F06FF01803584301EB04
:10226000800006EBC000B0FBF5F000F0F80002EBD8
:102270004002B1FBF5F0584301EB800006EBC000D3
:10228000B0FBF5F000F00700D6E7000000100140B9
:10229000001401402DE9F041984617460E460446C9
:1022A000069D27E0681C25D02DB1FEF705FAA0EBAE
:1022B0000800A8421ED920680C3050E8001F21F405
:1022C000D07140E80012002AF5D12068143050E89F
:1022D000001F21F0010140E80012002AF5D1202062
:1022E00084F83D0084F83E00002084F83C00032080
:1022F000BDE8F0812068006836EA000004D00020C4
:10230000B842CFD00020F3E70120F9E7FEE7090744
:10231000090E002804DB00F1E02080F8001470476B
:1023200000F00F0000F1E02080F8141D704700005D
:10233000044900220B685A6209684A6A8242FCD347
:10234000704700005801002070B5174C0020174D51
:102350002080024601212846FEF7A9F90220FFF756
:10236000E7FF012211462846FEF7A1F90A20FFF7F0
:10237000DFFF002201212846FEF799F90C4D0121CB
:102380002846FEF78FF90028F9D004E0401C208091
:102390000120FFF7CDFF01212846FEF783F9002831
:1023A0002088F3D170BD000000000020000C024026
:1023B000001402402DED028B82B0FEF78BF9FFF77F
:1023C00019FDFFF793FBFFF7ADFC55485349002477
:1023D000C0E900144FF6FF71C0E902410461846155
:1023E000FEF7FAFE08B172B6FEE7FFF7E3FBFFF770
:1023F00015FC4B484B49F838C0E900147F21816037
:10240000FF21C0E9031444618461FEF7F7FD08B1C0
:1024100072B6FEE7FFF738FC41484349903001604F
:102420004FF4E131C0E901140C21C460C0E904415A
:102430008461C461FFF77CFA08B172B6FEE73848E0
:102440004830FEF73DFF364800214838FFF70AFACA
:10245000334800219038FFF705FA9FED348B354D56
:1024600041F61466344F354C40F68C28DFF8D09096
:10247000FFF76AFF688000F094F853EC182B00F027
:10248000A3F800F05FF86860C820FDF7DFFF0022C6
:1024900004212046FEF70BF9686878280EDD01223A
:1024A00008212046FEF703F9002204212046FEF70A
:1024B000FEF86868C8280DDD012202E02D28FBDA4D
:1024C000002208212046FEF7F2F8012204212046CE
:1024D000FEF7EDF87E6312480A2301226946903028
:1024E000FFF7A2FA9DF8000031280ED0322813D051
:1024F000012210212046FEF7DAF801224021204671
:10250000FEF7D5F8C9F80080B2E701221021204675
:10251000FEF7CDF80022F1E70022EAE7004401408F
:102520001001002000280040005000409CC420B052
:102530007268913F000000200040014000100240FE
:10254000340C00404FEA41034FEA5353A3F5806334
:10255000D3F11E03C8BFD3F1210C0CDD4FF00042B4
:1025600042EAC12242EA505232FA03FC8CEAE17C90
:10257000ACEBE1707047102BC4BF0020704703F52F
:10258000787CBCF1FF3F04D06FF0004282EA21006A
:10259000704770B500F0C2F849922480002070475F
:1025A000F2E7B0FA80F310FA03F10AD0C3F11D0389
:1025B00003F580634FEA41504FEA035202EBD12109
:1025C00070474FF000007047DFF848C170B51CEA53
:1025D000111E1EBF1CEA13159EEA0C0F95EA0C0F84
:1025E00000F06F8081EA030423EA4C134EEAD47EA4
:1025F00021EA4C1141F4801143F48013AE44A1FB55
:10260000024CA0FB0365AEF17F7E361955EB0C053D
:10261000A1FB034C4CF10003A0FB021C16EB0C06C3
:10262000654153F10003094218BF46F0010613F457
:10263000007F0BD14FEA03314FEA0530340341EA02
:10264000155140EA16506FF003020AE04FEAC32129
:102650004FEAC520F40241EA555140EA56506FF066
:10266000020202EB2E4201EB025585EACE710AD03E
:102670005FEA440C18BF24F0004450F1000041F11F
:10268000000120EAD47040F2FE7C624500D270BDA9
:10269000A84214BF4FF080444FF04044002E08BFC2
:1026A0000024BEF1806FA8BFA1F1C041BDE8704019
:1026B00080F282804FF0000001F1C04101F0004142
:1026C00070479EEA0C0F0CEA131518BF95EA0C0F21
:1026D00006D04FF0000081EA030E0EF0004170BDFD
:1026E00000F01CF88900013E00F007B800F009B8BE
:1026F0004FEA430C5FEA5C5C08D081EA030100F01A
:102700005BB84FEA410C5FEA5C5CF6D14FF0000029
:10271000014970470000FF070000F87F0EF1020E2C
:102720002EF0030E5EF8046B364205D4012A43EB0B
:10273000030515F5001F12D8012841EB010C1CF50B
:10274000001F0CD80ED14FEAD17C15F5001F0CEB01
:102750004C0C0CF1020C08BF4CEBD37C04E04FF0A6
:10276000080C01E04FEAD37C0CEB4C0526FA05F689
:1027700006F00706B6F1040C06D20EEB860CBDE897
:1027800070404CF0010C6047DFE80CF0090B0202CE
:102790004FF000414FF00000A1F5002170BD194637
:1027A0001046012851EB010418BFD4F5001484BF72
:1027B000002001F0004170BD0808A0F500114FEAAB
:1027C000310170474FF04070E1EE100A7047000091
:1027D00000000000000001020304060708090000D1
:1027E0000000010203040000082800080000002087
:1027F00018000000E8010008202800081800002048
:102800003008000004020008000000000000000082
:102810000100000010000000000000000024F4008F
:04000005080001AD41
:00000001FF
